{
  "contractName": "Planetary",
  "abi": [
    {
      "inputs": [],
      "stateMutability": "nonpayable",
      "type": "constructor"
    },
    {
      "anonymous": false,
      "inputs": [
        {
          "indexed": true,
          "internalType": "address",
          "name": "owner",
          "type": "address"
        },
        {
          "indexed": true,
          "internalType": "address",
          "name": "approved",
          "type": "address"
        },
        {
          "indexed": true,
          "internalType": "uint256",
          "name": "tokenId",
          "type": "uint256"
        }
      ],
      "name": "Approval",
      "type": "event"
    },
    {
      "anonymous": false,
      "inputs": [
        {
          "indexed": true,
          "internalType": "address",
          "name": "owner",
          "type": "address"
        },
        {
          "indexed": true,
          "internalType": "address",
          "name": "operator",
          "type": "address"
        },
        {
          "indexed": false,
          "internalType": "bool",
          "name": "approved",
          "type": "bool"
        }
      ],
      "name": "ApprovalForAll",
      "type": "event"
    },
    {
      "anonymous": false,
      "inputs": [
        {
          "indexed": true,
          "internalType": "address",
          "name": "previousOwner",
          "type": "address"
        },
        {
          "indexed": true,
          "internalType": "address",
          "name": "newOwner",
          "type": "address"
        }
      ],
      "name": "OwnershipTransferred",
      "type": "event"
    },
    {
      "anonymous": false,
      "inputs": [
        {
          "indexed": true,
          "internalType": "address",
          "name": "from",
          "type": "address"
        },
        {
          "indexed": true,
          "internalType": "address",
          "name": "to",
          "type": "address"
        },
        {
          "indexed": true,
          "internalType": "uint256",
          "name": "tokenId",
          "type": "uint256"
        }
      ],
      "name": "Transfer",
      "type": "event"
    },
    {
      "inputs": [
        {
          "internalType": "address",
          "name": "to",
          "type": "address"
        },
        {
          "internalType": "uint256",
          "name": "tokenId",
          "type": "uint256"
        }
      ],
      "name": "approve",
      "outputs": [],
      "stateMutability": "nonpayable",
      "type": "function"
    },
    {
      "inputs": [
        {
          "internalType": "address",
          "name": "owner",
          "type": "address"
        }
      ],
      "name": "balanceOf",
      "outputs": [
        {
          "internalType": "uint256",
          "name": "",
          "type": "uint256"
        }
      ],
      "stateMutability": "view",
      "type": "function",
      "constant": true
    },
    {
      "inputs": [
        {
          "internalType": "uint256",
          "name": "tokenId",
          "type": "uint256"
        }
      ],
      "name": "getApproved",
      "outputs": [
        {
          "internalType": "address",
          "name": "",
          "type": "address"
        }
      ],
      "stateMutability": "view",
      "type": "function",
      "constant": true
    },
    {
      "inputs": [
        {
          "internalType": "address",
          "name": "owner",
          "type": "address"
        },
        {
          "internalType": "address",
          "name": "operator",
          "type": "address"
        }
      ],
      "name": "isApprovedForAll",
      "outputs": [
        {
          "internalType": "bool",
          "name": "",
          "type": "bool"
        }
      ],
      "stateMutability": "view",
      "type": "function",
      "constant": true
    },
    {
      "inputs": [],
      "name": "name",
      "outputs": [
        {
          "internalType": "string",
          "name": "",
          "type": "string"
        }
      ],
      "stateMutability": "view",
      "type": "function",
      "constant": true
    },
    {
      "inputs": [],
      "name": "owner",
      "outputs": [
        {
          "internalType": "address",
          "name": "",
          "type": "address"
        }
      ],
      "stateMutability": "view",
      "type": "function",
      "constant": true
    },
    {
      "inputs": [
        {
          "internalType": "uint256",
          "name": "tokenId",
          "type": "uint256"
        }
      ],
      "name": "ownerOf",
      "outputs": [
        {
          "internalType": "address",
          "name": "",
          "type": "address"
        }
      ],
      "stateMutability": "view",
      "type": "function",
      "constant": true
    },
    {
      "inputs": [],
      "name": "renounceOwnership",
      "outputs": [],
      "stateMutability": "nonpayable",
      "type": "function"
    },
    {
      "inputs": [
        {
          "internalType": "address",
          "name": "from",
          "type": "address"
        },
        {
          "internalType": "address",
          "name": "to",
          "type": "address"
        },
        {
          "internalType": "uint256",
          "name": "tokenId",
          "type": "uint256"
        }
      ],
      "name": "safeTransferFrom",
      "outputs": [],
      "stateMutability": "nonpayable",
      "type": "function"
    },
    {
      "inputs": [
        {
          "internalType": "address",
          "name": "from",
          "type": "address"
        },
        {
          "internalType": "address",
          "name": "to",
          "type": "address"
        },
        {
          "internalType": "uint256",
          "name": "tokenId",
          "type": "uint256"
        },
        {
          "internalType": "bytes",
          "name": "data",
          "type": "bytes"
        }
      ],
      "name": "safeTransferFrom",
      "outputs": [],
      "stateMutability": "nonpayable",
      "type": "function"
    },
    {
      "inputs": [
        {
          "internalType": "address",
          "name": "operator",
          "type": "address"
        },
        {
          "internalType": "bool",
          "name": "approved",
          "type": "bool"
        }
      ],
      "name": "setApprovalForAll",
      "outputs": [],
      "stateMutability": "nonpayable",
      "type": "function"
    },
    {
      "inputs": [
        {
          "internalType": "bytes4",
          "name": "interfaceId",
          "type": "bytes4"
        }
      ],
      "name": "supportsInterface",
      "outputs": [
        {
          "internalType": "bool",
          "name": "",
          "type": "bool"
        }
      ],
      "stateMutability": "view",
      "type": "function",
      "constant": true
    },
    {
      "inputs": [],
      "name": "symbol",
      "outputs": [
        {
          "internalType": "string",
          "name": "",
          "type": "string"
        }
      ],
      "stateMutability": "view",
      "type": "function",
      "constant": true
    },
    {
      "inputs": [
        {
          "internalType": "address",
          "name": "from",
          "type": "address"
        },
        {
          "internalType": "address",
          "name": "to",
          "type": "address"
        },
        {
          "internalType": "uint256",
          "name": "tokenId",
          "type": "uint256"
        }
      ],
      "name": "transferFrom",
      "outputs": [],
      "stateMutability": "nonpayable",
      "type": "function"
    },
    {
      "inputs": [
        {
          "internalType": "address",
          "name": "newOwner",
          "type": "address"
        }
      ],
      "name": "transferOwnership",
      "outputs": [],
      "stateMutability": "nonpayable",
      "type": "function"
    },
    {
      "inputs": [
        {
          "internalType": "uint256",
          "name": "tokenId",
          "type": "uint256"
        }
      ],
      "name": "tokenURI",
      "outputs": [
        {
          "internalType": "string",
          "name": "",
          "type": "string"
        }
      ],
      "stateMutability": "view",
      "type": "function",
      "constant": true
    }
  ],
  "bytecode": "0x60806040523480156200001157600080fd5b506040518060400160405280600981526020017f506c616e657461727900000000000000000000000000000000000000000000008152506040518060400160405280600481526020017f504c4e540000000000000000000000000000000000000000000000000000000081525081600090816200008f919062000a72565b508060019081620000a1919062000a72565b505050620000c4620000b8620001b060201b60201c565b620001b860201b60201c565b620000f13360016040518060600160405280602e8152602001620035e5602e91396200027e60201b60201c565b506200011f3360026040518060600160405280602e815260200162003641602e91396200027e60201b60201c565b506200014d3360036040518060600160405280602e81526020016200366f602e91396200027e60201b60201c565b506200017b3360046040518060600160405280602e815260200162003613602e91396200027e60201b60201c565b50620001a93360056040518060600160405280602e81526020016200369d602e91396200027e60201b60201c565b5062000fc0565b600033905090565b6000600760009054906101000a900473ffffffffffffffffffffffffffffffffffffffff16905081600760006101000a81548173ffffffffffffffffffffffffffffffffffffffff021916908373ffffffffffffffffffffffffffffffffffffffff1602179055508173ffffffffffffffffffffffffffffffffffffffff168173ffffffffffffffffffffffffffffffffffffffff167f8be0079c531659141344cd1fd0a4f28419497f9722a3daafe3b4186f6b6457e060405160405180910390a35050565b6000620002928484620002af60201b60201c565b620002a48383620002d560201b60201c565b600190509392505050565b620002d18282604051806020016040528060008152506200034f60201b60201c565b5050565b620002e682620003bd60201b60201c565b62000328576040517f08c379a00000000000000000000000000000000000000000000000000000000081526004016200031f9062000be0565b60405180910390fd5b806006600084815260200190815260200160002090816200034a919062000a72565b505050565b6200036183836200042960201b60201c565b6200037660008484846200062260201b60201c565b620003b8576040517f08c379a0000000000000000000000000000000000000000000000000000000008152600401620003af9062000c78565b60405180910390fd5b505050565b60008073ffffffffffffffffffffffffffffffffffffffff166002600084815260200190815260200160002060009054906101000a900473ffffffffffffffffffffffffffffffffffffffff1673ffffffffffffffffffffffffffffffffffffffff1614159050919050565b600073ffffffffffffffffffffffffffffffffffffffff168273ffffffffffffffffffffffffffffffffffffffff16036200049b576040517f08c379a0000000000000000000000000000000000000000000000000000000008152600401620004929062000cea565b60405180910390fd5b620004ac81620003bd60201b60201c565b15620004ef576040517f08c379a0000000000000000000000000000000000000000000000000000000008152600401620004e69062000d5c565b60405180910390fd5b6200050360008383620007cb60201b60201c565b6001600360008473ffffffffffffffffffffffffffffffffffffffff1673ffffffffffffffffffffffffffffffffffffffff168152602001908152602001600020600082825462000555919062000dad565b92505081905550816002600083815260200190815260200160002060006101000a81548173ffffffffffffffffffffffffffffffffffffffff021916908373ffffffffffffffffffffffffffffffffffffffff160217905550808273ffffffffffffffffffffffffffffffffffffffff16600073ffffffffffffffffffffffffffffffffffffffff167fddf252ad1be2c89b69c2b068fc378daa952ba7f163c4a11628f55a4df523b3ef60405160405180910390a46200061e60008383620007d060201b60201c565b5050565b6000620006508473ffffffffffffffffffffffffffffffffffffffff16620007d560201b62000a5b1760201c565b15620007be578373ffffffffffffffffffffffffffffffffffffffff1663150b7a0262000682620001b060201b60201c565b8786866040518563ffffffff1660e01b8152600401620006a6949392919062000ed8565b6020604051808303816000875af1925050508015620006e557506040513d601f19601f82011682018060405250810190620006e2919062000f8e565b60015b6200076d573d806000811462000718576040519150601f19603f3d011682016040523d82523d6000602084013e6200071d565b606091505b50600081510362000765576040517f08c379a00000000000000000000000000000000000000000000000000000000081526004016200075c9062000c78565b60405180910390fd5b805181602001fd5b63150b7a0260e01b7bffffffffffffffffffffffffffffffffffffffffffffffffffffffff1916817bffffffffffffffffffffffffffffffffffffffffffffffffffffffff191614915050620007c3565b600190505b949350505050565b505050565b505050565b6000808273ffffffffffffffffffffffffffffffffffffffff163b119050919050565b600081519050919050565b7f4e487b7100000000000000000000000000000000000000000000000000000000600052604160045260246000fd5b7f4e487b7100000000000000000000000000000000000000000000000000000000600052602260045260246000fd5b600060028204905060018216806200087a57607f821691505b60208210810362000890576200088f62000832565b5b50919050565b60008190508160005260206000209050919050565b60006020601f8301049050919050565b600082821b905092915050565b600060088302620008fa7fffffffffffffffffffffffffffffffffffffffffffffffffffffffffffffffff82620008bb565b620009068683620008bb565b95508019841693508086168417925050509392505050565b6000819050919050565b6000819050919050565b6000620009536200094d62000947846200091e565b62000928565b6200091e565b9050919050565b6000819050919050565b6200096f8362000932565b620009876200097e826200095a565b848454620008c8565b825550505050565b600090565b6200099e6200098f565b620009ab81848462000964565b505050565b5b81811015620009d357620009c760008262000994565b600181019050620009b1565b5050565b601f82111562000a2257620009ec8162000896565b620009f784620008ab565b8101602085101562000a07578190505b62000a1f62000a1685620008ab565b830182620009b0565b50505b505050565b600082821c905092915050565b600062000a476000198460080262000a27565b1980831691505092915050565b600062000a62838362000a34565b9150826002028217905092915050565b62000a7d82620007f8565b67ffffffffffffffff81111562000a995762000a9862000803565b5b62000aa5825462000861565b62000ab2828285620009d7565b600060209050601f83116001811462000aea576000841562000ad5578287015190505b62000ae1858262000a54565b86555062000b51565b601f19841662000afa8662000896565b60005b8281101562000b245784890151825560018201915060208501945060208101905062000afd565b8683101562000b44578489015162000b40601f89168262000a34565b8355505b6001600288020188555050505b505050505050565b600082825260208201905092915050565b7f45524337323155524953746f726167653a2055524920736574206f66206e6f6e60008201527f6578697374656e7420746f6b656e000000000000000000000000000000000000602082015250565b600062000bc8602e8362000b59565b915062000bd58262000b6a565b604082019050919050565b6000602082019050818103600083015262000bfb8162000bb9565b9050919050565b7f4552433732313a207472616e7366657220746f206e6f6e20455243373231526560008201527f63656976657220696d706c656d656e7465720000000000000000000000000000602082015250565b600062000c6060328362000b59565b915062000c6d8262000c02565b604082019050919050565b6000602082019050818103600083015262000c938162000c51565b9050919050565b7f4552433732313a206d696e7420746f20746865207a65726f2061646472657373600082015250565b600062000cd260208362000b59565b915062000cdf8262000c9a565b602082019050919050565b6000602082019050818103600083015262000d058162000cc3565b9050919050565b7f4552433732313a20746f6b656e20616c7265616479206d696e74656400000000600082015250565b600062000d44601c8362000b59565b915062000d518262000d0c565b602082019050919050565b6000602082019050818103600083015262000d778162000d35565b9050919050565b7f4e487b7100000000000000000000000000000000000000000000000000000000600052601160045260246000fd5b600062000dba826200091e565b915062000dc7836200091e565b925082820190508082111562000de25762000de162000d7e565b5b92915050565b600073ffffffffffffffffffffffffffffffffffffffff82169050919050565b600062000e158262000de8565b9050919050565b62000e278162000e08565b82525050565b62000e38816200091e565b82525050565b600081519050919050565b600082825260208201905092915050565b60005b8381101562000e7a57808201518184015260208101905062000e5d565b60008484015250505050565b6000601f19601f8301169050919050565b600062000ea48262000e3e565b62000eb0818562000e49565b935062000ec281856020860162000e5a565b62000ecd8162000e86565b840191505092915050565b600060808201905062000eef600083018762000e1c565b62000efe602083018662000e1c565b62000f0d604083018562000e2d565b818103606083015262000f21818462000e97565b905095945050505050565b600080fd5b60007fffffffff0000000000000000000000000000000000000000000000000000000082169050919050565b62000f688162000f31565b811462000f7457600080fd5b50565b60008151905062000f888162000f5d565b92915050565b60006020828403121562000fa75762000fa662000f2c565b5b600062000fb78482850162000f77565b91505092915050565b6126158062000fd06000396000f3fe608060405234801561001057600080fd5b50600436106101005760003560e01c8063715018a611610097578063b88d4fde11610066578063b88d4fde14610299578063c87b56dd146102b5578063e985e9c5146102e5578063f2fde38b1461031557610100565b8063715018a6146102375780638da5cb5b1461024157806395d89b411461025f578063a22cb4651461027d57610100565b806323b872dd116100d357806323b872dd1461019f57806342842e0e146101bb5780636352211e146101d757806370a082311461020757610100565b806301ffc9a71461010557806306fdde0314610135578063081812fc14610153578063095ea7b314610183575b600080fd5b61011f600480360381019061011a919061177b565b610331565b60405161012c91906117c3565b60405180910390f35b61013d610413565b60405161014a919061186e565b60405180910390f35b61016d600480360381019061016891906118c6565b6104a5565b60405161017a9190611934565b60405180910390f35b61019d6004803603810190610198919061197b565b6104eb565b005b6101b960048036038101906101b491906119bb565b610602565b005b6101d560048036038101906101d091906119bb565b610662565b005b6101f160048036038101906101ec91906118c6565b610682565b6040516101fe9190611934565b60405180910390f35b610221600480360381019061021c9190611a0e565b610733565b60405161022e9190611a4a565b60405180910390f35b61023f6107ea565b005b6102496107fe565b6040516102569190611934565b60405180910390f35b610267610828565b604051610274919061186e565b60405180910390f35b61029760048036038101906102929190611a91565b6108ba565b005b6102b360048036038101906102ae9190611c06565b6108d0565b005b6102cf60048036038101906102ca91906118c6565b610932565b6040516102dc919061186e565b60405180910390f35b6102ff60048036038101906102fa9190611c89565b610944565b60405161030c91906117c3565b60405180910390f35b61032f600480360381019061032a9190611a0e565b6109d8565b005b60007f80ac58cd000000000000000000000000000000000000000000000000000000007bffffffffffffffffffffffffffffffffffffffffffffffffffffffff1916827bffffffffffffffffffffffffffffffffffffffffffffffffffffffff191614806103fc57507f5b5e139f000000000000000000000000000000000000000000000000000000007bffffffffffffffffffffffffffffffffffffffffffffffffffffffff1916827bffffffffffffffffffffffffffffffffffffffffffffffffffffffff1916145b8061040c575061040b82610a7e565b5b9050919050565b60606000805461042290611cf8565b80601f016020809104026020016040519081016040528092919081815260200182805461044e90611cf8565b801561049b5780601f106104705761010080835404028352916020019161049b565b820191906000526020600020905b81548152906001019060200180831161047e57829003601f168201915b5050505050905090565b60006104b082610ae8565b6004600083815260200190815260200160002060009054906101000a900473ffffffffffffffffffffffffffffffffffffffff169050919050565b60006104f682610682565b90508073ffffffffffffffffffffffffffffffffffffffff168373ffffffffffffffffffffffffffffffffffffffff1603610566576040517f08c379a000000000000000000000000000000000000000000000000000000000815260040161055d90611d9b565b60405180910390fd5b8073ffffffffffffffffffffffffffffffffffffffff16610585610b33565b73ffffffffffffffffffffffffffffffffffffffff1614806105b457506105b3816105ae610b33565b610944565b5b6105f3576040517f08c379a00000000000000000000000000000000000000000000000000000000081526004016105ea90611e2d565b60405180910390fd5b6105fd8383610b3b565b505050565b61061361060d610b33565b82610bf4565b610652576040517f08c379a000000000000000000000000000000000000000000000000000000000815260040161064990611ebf565b60405180910390fd5b61065d838383610c89565b505050565b61067d838383604051806020016040528060008152506108d0565b505050565b6000806002600084815260200190815260200160002060009054906101000a900473ffffffffffffffffffffffffffffffffffffffff169050600073ffffffffffffffffffffffffffffffffffffffff168173ffffffffffffffffffffffffffffffffffffffff160361072a576040517f08c379a000000000000000000000000000000000000000000000000000000000815260040161072190611f2b565b60405180910390fd5b80915050919050565b60008073ffffffffffffffffffffffffffffffffffffffff168273ffffffffffffffffffffffffffffffffffffffff16036107a3576040517f08c379a000000000000000000000000000000000000000000000000000000000815260040161079a90611fbd565b60405180910390fd5b600360008373ffffffffffffffffffffffffffffffffffffffff1673ffffffffffffffffffffffffffffffffffffffff168152602001908152602001600020549050919050565b6107f2610eef565b6107fc6000610f6d565b565b6000600760009054906101000a900473ffffffffffffffffffffffffffffffffffffffff16905090565b60606001805461083790611cf8565b80601f016020809104026020016040519081016040528092919081815260200182805461086390611cf8565b80156108b05780601f10610885576101008083540402835291602001916108b0565b820191906000526020600020905b81548152906001019060200180831161089357829003601f168201915b5050505050905090565b6108cc6108c5610b33565b8383611033565b5050565b6108e16108db610b33565b83610bf4565b610920576040517f08c379a000000000000000000000000000000000000000000000000000000000815260040161091790611ebf565b60405180910390fd5b61092c8484848461119f565b50505050565b606061093d826111fb565b9050919050565b6000600560008473ffffffffffffffffffffffffffffffffffffffff1673ffffffffffffffffffffffffffffffffffffffff16815260200190815260200160002060008373ffffffffffffffffffffffffffffffffffffffff1673ffffffffffffffffffffffffffffffffffffffff16815260200190815260200160002060009054906101000a900460ff16905092915050565b6109e0610eef565b600073ffffffffffffffffffffffffffffffffffffffff168173ffffffffffffffffffffffffffffffffffffffff1603610a4f576040517f08c379a0000000000000000000000000000000000000000000000000000000008152600401610a469061204f565b60405180910390fd5b610a5881610f6d565b50565b6000808273ffffffffffffffffffffffffffffffffffffffff163b119050919050565b60007f01ffc9a7000000000000000000000000000000000000000000000000000000007bffffffffffffffffffffffffffffffffffffffffffffffffffffffff1916827bffffffffffffffffffffffffffffffffffffffffffffffffffffffff1916149050919050565b610af18161130d565b610b30576040517f08c379a0000000000000000000000000000000000000000000000000000000008152600401610b2790611f2b565b60405180910390fd5b50565b600033905090565b816004600083815260200190815260200160002060006101000a81548173ffffffffffffffffffffffffffffffffffffffff021916908373ffffffffffffffffffffffffffffffffffffffff160217905550808273ffffffffffffffffffffffffffffffffffffffff16610bae83610682565b73ffffffffffffffffffffffffffffffffffffffff167f8c5be1e5ebec7d5bd14f71427d1e84f3dd0314c0f7b2291e5b200ac8c7c3b92560405160405180910390a45050565b600080610c0083610682565b90508073ffffffffffffffffffffffffffffffffffffffff168473ffffffffffffffffffffffffffffffffffffffff161480610c425750610c418185610944565b5b80610c8057508373ffffffffffffffffffffffffffffffffffffffff16610c68846104a5565b73ffffffffffffffffffffffffffffffffffffffff16145b91505092915050565b8273ffffffffffffffffffffffffffffffffffffffff16610ca982610682565b73ffffffffffffffffffffffffffffffffffffffff1614610cff576040517f08c379a0000000000000000000000000000000000000000000000000000000008152600401610cf6906120e1565b60405180910390fd5b600073ffffffffffffffffffffffffffffffffffffffff168273ffffffffffffffffffffffffffffffffffffffff1603610d6e576040517f08c379a0000000000000000000000000000000000000000000000000000000008152600401610d6590612173565b60405180910390fd5b610d79838383611379565b610d84600082610b3b565b6001600360008573ffffffffffffffffffffffffffffffffffffffff1673ffffffffffffffffffffffffffffffffffffffff1681526020019081526020016000206000828254610dd491906121c2565b925050819055506001600360008473ffffffffffffffffffffffffffffffffffffffff1673ffffffffffffffffffffffffffffffffffffffff1681526020019081526020016000206000828254610e2b91906121f6565b92505081905550816002600083815260200190815260200160002060006101000a81548173ffffffffffffffffffffffffffffffffffffffff021916908373ffffffffffffffffffffffffffffffffffffffff160217905550808273ffffffffffffffffffffffffffffffffffffffff168473ffffffffffffffffffffffffffffffffffffffff167fddf252ad1be2c89b69c2b068fc378daa952ba7f163c4a11628f55a4df523b3ef60405160405180910390a4610eea83838361137e565b505050565b610ef7610b33565b73ffffffffffffffffffffffffffffffffffffffff16610f156107fe565b73ffffffffffffffffffffffffffffffffffffffff1614610f6b576040517f08c379a0000000000000000000000000000000000000000000000000000000008152600401610f6290612276565b60405180910390fd5b565b6000600760009054906101000a900473ffffffffffffffffffffffffffffffffffffffff16905081600760006101000a81548173ffffffffffffffffffffffffffffffffffffffff021916908373ffffffffffffffffffffffffffffffffffffffff1602179055508173ffffffffffffffffffffffffffffffffffffffff168173ffffffffffffffffffffffffffffffffffffffff167f8be0079c531659141344cd1fd0a4f28419497f9722a3daafe3b4186f6b6457e060405160405180910390a35050565b8173ffffffffffffffffffffffffffffffffffffffff168373ffffffffffffffffffffffffffffffffffffffff16036110a1576040517f08c379a0000000000000000000000000000000000000000000000000000000008152600401611098906122e2565b60405180910390fd5b80600560008573ffffffffffffffffffffffffffffffffffffffff1673ffffffffffffffffffffffffffffffffffffffff16815260200190815260200160002060008473ffffffffffffffffffffffffffffffffffffffff1673ffffffffffffffffffffffffffffffffffffffff16815260200190815260200160002060006101000a81548160ff0219169083151502179055508173ffffffffffffffffffffffffffffffffffffffff168373ffffffffffffffffffffffffffffffffffffffff167f17307eab39ab6107e8899845ad3d59bd9653f200f220920489ca2b5937696c318360405161119291906117c3565b60405180910390a3505050565b6111aa848484610c89565b6111b684848484611383565b6111f5576040517f08c379a00000000000000000000000000000000000000000000000000000000081526004016111ec90612374565b60405180910390fd5b50505050565b606061120682610ae8565b600060066000848152602001908152602001600020805461122690611cf8565b80601f016020809104026020016040519081016040528092919081815260200182805461125290611cf8565b801561129f5780601f106112745761010080835404028352916020019161129f565b820191906000526020600020905b81548152906001019060200180831161128257829003601f168201915b5050505050905060006112b061150a565b905060008151036112c5578192505050611308565b6000825111156112fa5780826040516020016112e29291906123d0565b60405160208183030381529060405292505050611308565b61130384611547565b925050505b919050565b60008073ffffffffffffffffffffffffffffffffffffffff166002600084815260200190815260200160002060009054906101000a900473ffffffffffffffffffffffffffffffffffffffff1673ffffffffffffffffffffffffffffffffffffffff1614159050919050565b505050565b505050565b60006113a48473ffffffffffffffffffffffffffffffffffffffff16610a5b565b156114fd578373ffffffffffffffffffffffffffffffffffffffff1663150b7a026113cd610b33565b8786866040518563ffffffff1660e01b81526004016113ef9493929190612449565b6020604051808303816000875af192505050801561142b57506040513d601f19601f8201168201806040525081019061142891906124aa565b60015b6114ad573d806000811461145b576040519150601f19603f3d011682016040523d82523d6000602084013e611460565b606091505b5060008151036114a5576040517f08c379a000000000000000000000000000000000000000000000000000000000815260040161149c90612374565b60405180910390fd5b805181602001fd5b63150b7a0260e01b7bffffffffffffffffffffffffffffffffffffffffffffffffffffffff1916817bffffffffffffffffffffffffffffffffffffffffffffffffffffffff191614915050611502565b600190505b949350505050565b60606040518060400160405280601581526020017f68747470733a2f2f697066732e696f2f697066732f0000000000000000000000815250905090565b606061155282610ae8565b600061155c61150a565b9050600081511161157c57604051806020016040528060008152506115a7565b80611586846115af565b6040516020016115979291906123d0565b6040516020818303038152906040525b915050919050565b6060600082036115f6576040518060400160405280600181526020017f3000000000000000000000000000000000000000000000000000000000000000815250905061170a565b600082905060005b60008214611628578080611611906124d7565b915050600a82611621919061254e565b91506115fe565b60008167ffffffffffffffff81111561164457611643611adb565b5b6040519080825280601f01601f1916602001820160405280156116765781602001600182028036833780820191505090505b5090505b600085146117035760018261168f91906121c2565b9150600a8561169e919061257f565b60306116aa91906121f6565b60f81b8183815181106116c0576116bf6125b0565b5b60200101907effffffffffffffffffffffffffffffffffffffffffffffffffffffffffffff1916908160001a905350600a856116fc919061254e565b945061167a565b8093505050505b919050565b6000604051905090565b600080fd5b600080fd5b60007fffffffff0000000000000000000000000000000000000000000000000000000082169050919050565b61175881611723565b811461176357600080fd5b50565b6000813590506117758161174f565b92915050565b60006020828403121561179157611790611719565b5b600061179f84828501611766565b91505092915050565b60008115159050919050565b6117bd816117a8565b82525050565b60006020820190506117d860008301846117b4565b92915050565b600081519050919050565b600082825260208201905092915050565b60005b838110156118185780820151818401526020810190506117fd565b60008484015250505050565b6000601f19601f8301169050919050565b6000611840826117de565b61184a81856117e9565b935061185a8185602086016117fa565b61186381611824565b840191505092915050565b600060208201905081810360008301526118888184611835565b905092915050565b6000819050919050565b6118a381611890565b81146118ae57600080fd5b50565b6000813590506118c08161189a565b92915050565b6000602082840312156118dc576118db611719565b5b60006118ea848285016118b1565b91505092915050565b600073ffffffffffffffffffffffffffffffffffffffff82169050919050565b600061191e826118f3565b9050919050565b61192e81611913565b82525050565b60006020820190506119496000830184611925565b92915050565b61195881611913565b811461196357600080fd5b50565b6000813590506119758161194f565b92915050565b6000806040838503121561199257611991611719565b5b60006119a085828601611966565b92505060206119b1858286016118b1565b9150509250929050565b6000806000606084860312156119d4576119d3611719565b5b60006119e286828701611966565b93505060206119f386828701611966565b9250506040611a04868287016118b1565b9150509250925092565b600060208284031215611a2457611a23611719565b5b6000611a3284828501611966565b91505092915050565b611a4481611890565b82525050565b6000602082019050611a5f6000830184611a3b565b92915050565b611a6e816117a8565b8114611a7957600080fd5b50565b600081359050611a8b81611a65565b92915050565b60008060408385031215611aa857611aa7611719565b5b6000611ab685828601611966565b9250506020611ac785828601611a7c565b9150509250929050565b600080fd5b600080fd5b7f4e487b7100000000000000000000000000000000000000000000000000000000600052604160045260246000fd5b611b1382611824565b810181811067ffffffffffffffff82111715611b3257611b31611adb565b5b80604052505050565b6000611b4561170f565b9050611b518282611b0a565b919050565b600067ffffffffffffffff821115611b7157611b70611adb565b5b611b7a82611824565b9050602081019050919050565b82818337600083830152505050565b6000611ba9611ba484611b56565b611b3b565b905082815260208101848484011115611bc557611bc4611ad6565b5b611bd0848285611b87565b509392505050565b600082601f830112611bed57611bec611ad1565b5b8135611bfd848260208601611b96565b91505092915050565b60008060008060808587031215611c2057611c1f611719565b5b6000611c2e87828801611966565b9450506020611c3f87828801611966565b9350506040611c50878288016118b1565b925050606085013567ffffffffffffffff811115611c7157611c7061171e565b5b611c7d87828801611bd8565b91505092959194509250565b60008060408385031215611ca057611c9f611719565b5b6000611cae85828601611966565b9250506020611cbf85828601611966565b9150509250929050565b7f4e487b7100000000000000000000000000000000000000000000000000000000600052602260045260246000fd5b60006002820490506001821680611d1057607f821691505b602082108103611d2357611d22611cc9565b5b50919050565b7f4552433732313a20617070726f76616c20746f2063757272656e74206f776e6560008201527f7200000000000000000000000000000000000000000000000000000000000000602082015250565b6000611d856021836117e9565b9150611d9082611d29565b604082019050919050565b60006020820190508181036000830152611db481611d78565b9050919050565b7f4552433732313a20617070726f76652063616c6c6572206973206e6f7420746f60008201527f6b656e206f776e6572206e6f7220617070726f76656420666f7220616c6c0000602082015250565b6000611e17603e836117e9565b9150611e2282611dbb565b604082019050919050565b60006020820190508181036000830152611e4681611e0a565b9050919050565b7f4552433732313a2063616c6c6572206973206e6f7420746f6b656e206f776e6560008201527f72206e6f7220617070726f766564000000000000000000000000000000000000602082015250565b6000611ea9602e836117e9565b9150611eb482611e4d565b604082019050919050565b60006020820190508181036000830152611ed881611e9c565b9050919050565b7f4552433732313a20696e76616c696420746f6b656e2049440000000000000000600082015250565b6000611f156018836117e9565b9150611f2082611edf565b602082019050919050565b60006020820190508181036000830152611f4481611f08565b9050919050565b7f4552433732313a2061646472657373207a65726f206973206e6f74206120766160008201527f6c6964206f776e65720000000000000000000000000000000000000000000000602082015250565b6000611fa76029836117e9565b9150611fb282611f4b565b604082019050919050565b60006020820190508181036000830152611fd681611f9a565b9050919050565b7f4f776e61626c653a206e6577206f776e657220697320746865207a65726f206160008201527f6464726573730000000000000000000000000000000000000000000000000000602082015250565b60006120396026836117e9565b915061204482611fdd565b604082019050919050565b600060208201905081810360008301526120688161202c565b9050919050565b7f4552433732313a207472616e736665722066726f6d20696e636f72726563742060008201527f6f776e6572000000000000000000000000000000000000000000000000000000602082015250565b60006120cb6025836117e9565b91506120d68261206f565b604082019050919050565b600060208201905081810360008301526120fa816120be565b9050919050565b7f4552433732313a207472616e7366657220746f20746865207a65726f2061646460008201527f7265737300000000000000000000000000000000000000000000000000000000602082015250565b600061215d6024836117e9565b915061216882612101565b604082019050919050565b6000602082019050818103600083015261218c81612150565b9050919050565b7f4e487b7100000000000000000000000000000000000000000000000000000000600052601160045260246000fd5b60006121cd82611890565b91506121d883611890565b92508282039050818111156121f0576121ef612193565b5b92915050565b600061220182611890565b915061220c83611890565b925082820190508082111561222457612223612193565b5b92915050565b7f4f776e61626c653a2063616c6c6572206973206e6f7420746865206f776e6572600082015250565b60006122606020836117e9565b915061226b8261222a565b602082019050919050565b6000602082019050818103600083015261228f81612253565b9050919050565b7f4552433732313a20617070726f766520746f2063616c6c657200000000000000600082015250565b60006122cc6019836117e9565b91506122d782612296565b602082019050919050565b600060208201905081810360008301526122fb816122bf565b9050919050565b7f4552433732313a207472616e7366657220746f206e6f6e20455243373231526560008201527f63656976657220696d706c656d656e7465720000000000000000000000000000602082015250565b600061235e6032836117e9565b915061236982612302565b604082019050919050565b6000602082019050818103600083015261238d81612351565b9050919050565b600081905092915050565b60006123aa826117de565b6123b48185612394565b93506123c48185602086016117fa565b80840191505092915050565b60006123dc828561239f565b91506123e8828461239f565b91508190509392505050565b600081519050919050565b600082825260208201905092915050565b600061241b826123f4565b61242581856123ff565b93506124358185602086016117fa565b61243e81611824565b840191505092915050565b600060808201905061245e6000830187611925565b61246b6020830186611925565b6124786040830185611a3b565b818103606083015261248a8184612410565b905095945050505050565b6000815190506124a48161174f565b92915050565b6000602082840312156124c0576124bf611719565b5b60006124ce84828501612495565b91505092915050565b60006124e282611890565b91507fffffffffffffffffffffffffffffffffffffffffffffffffffffffffffffffff820361251457612513612193565b5b600182019050919050565b7f4e487b7100000000000000000000000000000000000000000000000000000000600052601260045260246000fd5b600061255982611890565b915061256483611890565b9250826125745761257361251f565b5b828204905092915050565b600061258a82611890565b915061259583611890565b9250826125a5576125a461251f565b5b828206905092915050565b7f4e487b7100000000000000000000000000000000000000000000000000000000600052603260045260246000fdfea2646970667358221220ada8d8a3d7eb8394d515160ffbd4e41c233808d5caf97a3f8cbc16bebecd472564736f6c63430008110033516d6347427952683364596f5a4138617633436d4572686d6545466945527a47597a665137694271553168623547516d6361423738714e42777538426a4c4a3863737339356a31723347517666476d56356468346e336b427374567a516d627862767251435638636d5838777551633855724e5578547069467a656f70657a644d454735796d64767a4d516d52566f6556797937716478787672674a586543346f6d4a4277463439684e4568516d64613462457a4c383751516d5037485850656b675754416133767373384e50477571696d43386f6f6f683672664842785279644c7548365a",
  "immutableReferences": {},
  "source": "// SPDX-License-Identifier: MIT\npragma solidity ^0.8.4;\n\nimport \"@openzeppelin/contracts/token/ERC721/ERC721.sol\";\nimport \"@openzeppelin/contracts/token/ERC721/extensions/ERC721URIStorage.sol\";\nimport \"@openzeppelin/contracts/access/Ownable.sol\";\n\ncontract Planetary is ERC721, ERC721URIStorage, Ownable {\n    constructor() ERC721(\"Planetary\", \"PLNT\") {\n      \n      _createPlanet(msg.sender, 1, \"QmcGByRh3dYoZA8av3CmErhmeEFiERzGYzfQ7iBqU1hb5G\");\n      _createPlanet(msg.sender, 2, \"QmbxbvrQCV8cmX8wuQc8UrNUxTpiFzeopezdMEG5ymdvzM\");\n      _createPlanet(msg.sender, 3, \"QmRVoeVyy7qdxxvrgJXeC4omJBwF49hNEhQmda4bEzL87Q\");\n      _createPlanet(msg.sender, 4, \"QmcaB78qNBwu8BjLJ8css95j1r3GQvfGmV5dh4n3kBstVz\");\n      _createPlanet(msg.sender, 5, \"QmP7HXPekgWTAa3vss8NPGuqimC8oooh6rfHBxRydLuH6Z\");\n\n    }\n\n    function _createPlanet(address to, uint id, string memory url) private returns (bool) {\n      _safeMint(to, id);\n      _setTokenURI(id, url);\n      return true;\n    }\n\n    function _baseURI() internal pure override returns (string memory) {\n        return \"https://ipfs.io/ipfs/\";\n    }\n\n    // The following functions are overrides required by Solidity.\n\n    function _burn(uint256 tokenId) internal override(ERC721, ERC721URIStorage) {\n        super._burn(tokenId);\n    }\n\n    function tokenURI(uint256 tokenId)\n        public\n        view\n        override(ERC721, ERC721URIStorage)\n        returns (string memory)\n    {\n        return super.tokenURI(tokenId);\n    }\n}",
  "sourcePath": "/Users/jenniferriess/Desktop/planetary/planetary/contracts/Planetary.sol",
  "compiler": {
    "name": "solc",
    "version": "0.8.17+commit.8df45f5f.Emscripten.clang"
  },
  "schemaVersion": "3.4.10",
  "updatedAt": "2022-10-12T05:29:02.752Z",
  "networkType": "ethereum",
  "devdoc": {
    "kind": "dev",
    "methods": {
      "approve(address,uint256)": {
        "details": "See {IERC721-approve}."
      },
      "balanceOf(address)": {
        "details": "See {IERC721-balanceOf}."
      },
      "getApproved(uint256)": {
        "details": "See {IERC721-getApproved}."
      },
      "isApprovedForAll(address,address)": {
        "details": "See {IERC721-isApprovedForAll}."
      },
      "name()": {
        "details": "See {IERC721Metadata-name}."
      },
      "owner()": {
        "details": "Returns the address of the current owner."
      },
      "ownerOf(uint256)": {
        "details": "See {IERC721-ownerOf}."
      },
      "renounceOwnership()": {
        "details": "Leaves the contract without owner. It will not be possible to call `onlyOwner` functions anymore. Can only be called by the current owner. NOTE: Renouncing ownership will leave the contract without an owner, thereby removing any functionality that is only available to the owner."
      },
      "safeTransferFrom(address,address,uint256)": {
        "details": "See {IERC721-safeTransferFrom}."
      },
      "safeTransferFrom(address,address,uint256,bytes)": {
        "details": "See {IERC721-safeTransferFrom}."
      },
      "setApprovalForAll(address,bool)": {
        "details": "See {IERC721-setApprovalForAll}."
      },
      "supportsInterface(bytes4)": {
        "details": "See {IERC165-supportsInterface}."
      },
      "symbol()": {
        "details": "See {IERC721Metadata-symbol}."
      },
      "transferFrom(address,address,uint256)": {
        "details": "See {IERC721-transferFrom}."
      },
      "transferOwnership(address)": {
        "details": "Transfers ownership of the contract to a new account (`newOwner`). Can only be called by the current owner."
      }
    },
    "version": 1
  },
  "userdoc": {
    "kind": "user",
    "methods": {},
    "version": 1
  }
}